:020000040000FA
:100000000C9463000C948B000C948B000C948B006C
:100010000C948B000C948B000C948B000C948B0034
:100020000C948B000C948B000C948B000C948B0024
:100030000C948B000C948B000C948B000C948B0014
:100040000C9465050C948B000C948B000C948B0025
:100050000C948B000C948B000C948B000C948B00F4
:100060000C94AF050C948B000000000024002700C6
:100070002A0000000000250028002B0000000000DE
:1000800023002600290004040404040404040202DA
:100090000202020203030303030301020408102007
:1000A0004080010204081020010204081020000012
:1000B0000008000201000003040700000000000027
:1000C0000000CE06A50B11241FBECFEFD8E0DEBF87
:1000D000CDBF23E0AEE2B2E001C01D92AE38B20760
:1000E000E1F712E0A0E0B1E0EAECFBE102C005902C
:1000F0000D92AE32B107D9F710E0C2E6D0E004C0ED
:100100002197FE010E94E00BC136D107C9F70E947A
:100110005C070C94D80D0C94000096E0899FD001E8
:100120001124A75FBC4F90967C936E935F9791E0EC
:1001300091969C939197E0917603F091770390913B
:100140007503992339F0309751F0811108C08091DF
:1001500025030994309719F05C968C91FACF089595
:10016000089508950895AF92BF92CF92DF92EF92D3
:10017000FF920F931F93CF93DF936C017B018B0151
:10018000040F151FEB015E01AE18BF08C017D107A1
:1001900059F06991D601ED91FC910190F081E02D2B
:1001A000C6010995892B79F7C501DF91CF911F9180
:1001B0000F91FF90EF90DF90CF90BF90AF90089598
:1001C000833081F028F4813099F08230A9F00895CD
:1001D0008730A9F08830C9F08430B1F48091800074
:1001E0008F7D03C0809180008F7780938000089579
:1001F00084B58F7784BD089584B58F7DFBCF8091C2
:10020000B0008F778093B00008958091B0008F7D0B
:10021000F9CFCF93DF93282F30E0F901E255FF4F5C
:100220008491F901E656FF4FD491F901EA57FF4F47
:10023000C491CC23A1F081110E94E000EC2FF0E0EA
:10024000EE0FFF1FE458FF4FA591B491EC91ED2301
:1002500081E090E009F480E0DF91CF91089580E0A3
:1002600090E0FACF862F0C9409011F93CF93DF9370
:10027000282F30E0F901E255FF4F8491F901E6564D
:10028000FF4FD491F901EA57FF4FC491CC23A9F055
:10029000162F81110E94E000EC2FF0E0EE0FFF1FFF
:1002A000EE58FF4FA591B4918FB7F894EC911111CE
:1002B00008C0D095DE23DC938FBFDF91CF911F91D3
:1002C0000895DE2BF8CF862F642F0C943501CF9341
:1002D000DF9390E0FC01E656FF4F24918A579F4F31
:1002E000FC0184918823C9F090E0880F991FFC01DC
:1002F000E859FF4FA591B491FC01EE58FF4FC5910D
:10030000D49161110DC09FB7F8948C9120958223F0
:100310008C938881282328839FBFDF91CF910895F4
:10032000623051F49FB7F8943C91822F80958323DB
:100330008C93E8812E2BEFCF8FB7F894EC912E2B76
:100340002C938FBFEACF862F642F0C9467013FB7A1
:10035000F8948091E5029091E602A091E702B091B5
:10036000E80226B5A89B05C02F3F19F00196A11DF4
:10037000B11D3FBFBA2FA92F982F8827BC01CD01EF
:10038000620F711D811D911D42E0660F771F881F4E
:10039000991F4A95D1F708958F929F92AF92BF927D
:1003A000CF92DF92EF92FF924B015C010E94A70176
:1003B0006B017C010E94A7016C197D098E099F09C0
:1003C000683E734081059105A8F321E0821A9108E7
:1003D000A108B10888EEC80E83E0D81EE11CF11C0C
:1003E00081149104A104B10429F7FF90EF90DF90EC
:1003F000CF90BF90AF909F908F9008952FB7F894B3
:100400006091E1027091E2028091E3029091E40236
:100410002FBF08950F931F93CF93DF93C82FD62F2D
:1004200086E0C89FF0011124E75FFC4F11A2878D81
:1004300090A181309105F1F058F082309105F1F1F1
:10044000039709F440C0DF91CF911F910F91089558
:100450006623C9F361E070E08C2F0E948D000E943A
:10046000FE01609361037093620380936303909332
:100470006403E9CF0E94FE010091610310916203C1
:100480002091630330916403AB01BC01401B510B0D
:10049000620B730B8091730390917403B0E0A0E042
:1004A00084179507A607B70748F462E070E08C2F21
:1004B000DF91CF911F910F910C948D0063E070E05C
:1004C000D111C1CFF4CF70E060E0F1CF20916F0285
:1004D000260F3327331F21323105ECF42091B80267
:1004E000FC0190E080E0243069F082E00895A09162
:1004F0006F022191AC01415B5D4FA40FB52FB11D7F
:100500002C930196861798F380916F02680F609381
:100510006F0280E0089581E008951092B80281E0B2
:100520008093B7021092920261E082E10E9435014D
:1005300061E083E10E943501E9EBF0E080818E7F8C
:10054000808380818D7F808388E48093B80085E4F8
:100550008093BC000895CF93DF9391E090934E0277
:100560008823B9F0C091B800D091BA008091BC0046
:100570008A7B8093BC0060E082E10E94350160E0EC
:1005800083E10E9435010E948D02D093BA00C0938E
:10059000B800DF91CF9108950895E091F002809125
:1005A000EF02E81730F4F0E0E25DFD4F808190E06B
:1005B00008958FEF9FEF08959091F0028091EF02E0
:1005C0002FEF3FEF981748F4E92FF0E0E25DFD4F81
:1005D000208130E09F5F9093F002C90108958091DF
:1005E000EF029091F002891B990B0895CF92DF9250
:1005F000EF92FF920F931F93CF93DF937C01CB0178
:100600008A012091BE02222389F0EB016B01C40E06
:10061000D51ECC15DD0569F06991D701ED91FC91EE
:100620000190F081E02DC7010995F3CF642F0E945E
:100630006602C801DF91CF911F910F91FF90EF905B
:10064000DF90CF900895CF93DF931F92CDB7DEB7A1
:1006500069832091BE022223F9F02091ED0220321D
:1006600058F021E030E0FC013383228390E080E009
:100670000F90DF91CF9108958091EE02E82FF0E086
:10068000E154FD4F998190838F5F8093EE028093B8
:10069000ED0281E090E0ECCF61E0CE0101960E9496
:1006A0006602F7CFCF92DF92EF92FF920F931F93E4
:1006B000CF93DF93FC01C48121E02093BE02C0935D
:1006C000DF021092EE021092ED028385682B8DEF0F
:1006D00092E00E942303D091ED02D13208F092C043
:1006E0000E94A7016B017C018091B802811165C055
:1006F00082E08093B80281E08093B7028FEF80930D
:10070000B6021092B502D093B402AFEBB2E0E4E9C6
:10071000F2E080E0D81385C010929302809193029A
:10072000CC0FC82BC093930280919202813009F0C4
:100730007CC0109292020E94A7016B017C01809103
:1007400093028093BB008091BA029091BB02A0916A
:10075000BC02B091BD02892B8A2B8B2B99F00E9491
:10076000A7010091BA021091BB022091BC02309106
:10077000BD026C197D098E099F0906171707280706
:100780003907E0F18091BC0083FDD9CF85EC8093DF
:10079000BC000E94A7016B017C018091B8028230ED
:1007A00009F445C08091B6028F3F61F18091B60295
:1007B000803241F18091B60225C08091BA029091B9
:1007C000BB02A091BC02B091BD02892B8A2B8B2B5E
:1007D00009F48ACF0E94A7010091BA021091BB02CE
:1007E0002091BC023091BD026C197D098E099F09D0
:1007F000061717072807390708F076CF8091B90246
:100800000E94AB021092EE021092ED021092BE0214
:10081000DF91CF911F910F91FF90EF90DF90CF90DC
:1008200008959D9191938F5F75CF85EEB0CF8091A4
:10083000BA029091BB02A091BC02B091BD02892B7B
:100840008A2B8B2B09F4A9CF0E94A7010091BA0231
:100850001091BB022091BC023091BD026C197D0940
:100860008E099F09061717072807390708F095CF43
:10087000C5CF90E080E0089561E08AE00E943501F4
:1008800060E08BE00E94350168EE73E080E090E06C
:100890000C94CC010F931F93CF938C01C62F0E9411
:1008A00052036C2F6460C8010E9452036C2F6B7F4F
:1008B000C8010E94520383EC90E00197F1F7CF91B9
:1008C0001F910F9108950F931F93CF93DF938C0186
:1008D000D62FC42F607F642B0E944A0480E1D89FEA
:1008E000B00111246C2BC801DF91CF911F910F91A2
:1008F0000C944A0440E061E08EE793E00E946304B8
:100900008BE39FE10197F1F70895CF93DF93CDB784
:10091000DEB728970FB6F894DEBF0FBECDBF98E0C4
:10092000E9E1F1E0DE01119601900D929A95E1F76F
:1009300090918703961710F46FEF690F262F30E020
:10094000220F331F41E050E04C0F5D1F240F351F75
:10095000F9016081680F606840E08EE793E02896B7
:100960000FB6F894DEBF0FBECDBFDF91CF910C94D0
:10097000630441E00E94630481E090E00895FC017B
:1009800001900020E9F73197AF01481B590BBC01DA
:100990008EE793E00C94B3001092FC028091F80271
:1009A0009091F902892B61F40E947A0489E491E024
:1009B0000E94BF0460ED77E080E090E00E94CC01EF
:1009C0000E947A0486E591E00C94BF04FC018081CA
:1009D0009181009711F00C94820C0895EF92FF9290
:1009E0000F931F93CF93DF93EC017B018A018881E2
:1009F0009981009729F02A813B812417350788F4D3
:100A0000B8016F5F7F4F0E940B0D009791F09983A3
:100A100088831B830A832C813D81232B11F4FC01E5
:100A200010821D830C83B701888199810E94D10DAA
:100A30000CC088819981009711F00E94820C198264
:100A400018821D821C821B821A82CE01DF91CF91F7
:100A50001F910F91FF90EF90089585ED8093BC005A
:100A60008091BA029091BB02A091BC02B091BD02EC
:100A70000796A11DB11D23E0B695A795979587957B
:100A80002A95D1F72091BC0024FD03C01092B80232
:100A900008954091BA025091BB026091BC027091DE
:100AA000BD02452B462B472B69F30097A105B105E5
:100AB00041F025E32A95F1F700000197A109B1095A
:100AC000E1CF8091B9020C94AB021F920F920FB646
:100AD0000F9211242F933F938F939F93AF93BF93C4
:100AE0008091E1029091E202A091E302B091E402D0
:100AF0003091E00223E0230F2D3758F50196A11D18
:100B0000B11D2093E0028093E1029093E202A09352
:100B1000E302B093E4028091E5029091E602A09195
:100B2000E702B091E8020196A11DB11D8093E50294
:100B30009093E602A093E702B093E802BF91AF91D1
:100B40009F918F913F912F910F900FBE0F901F900B
:100B5000189526E8230F0296A11DB11DD2CF1F9232
:100B60000F920FB60F9211242F933F934F935F93E1
:100B70006F937F938F939F93AF93BF93EF93FF9365
:100B80008091B900887F803609F44AC0F0F5883238
:100B900009F4A7C018F5803109F49BC0B8F4882384
:100BA00009F4F9C0883009F494C0FF91EF91BF9126
:100BB000AF919F918F917F916F915F914F913F91F5
:100BC0002F910F900FBE0F901F901895883109F448
:100BD00088C0803251F78093B60214C0803409F483
:100BE0009DC040F48033B9F38833F9F68093B602A0
:100BF00085ECB0C0803509F485C0883509F496C00D
:100C0000883499F60E942D05D0CF883909F48CC01C
:100C100038F5883729F050F4883611F0803729F6F6
:100C200083E08093B8021092910257C0883809F48B
:100C30007BC0803919F0803809F0B7CF80919102DC
:100C4000803208F071C0E091910281E08E0F8093B4
:100C500091028091BB00F0E0EF58FD4F80833DC0D2
:100C6000803B39F0E0F4803A09F479C0883A09F021
:100C70009CCF84E08093B8021092700210926F02B1
:100C8000E091EB02F091EC02099580916F028111E5
:100C90000FC081E080936F0210924F0209C0803C28
:100CA00009F4A6CF883C09F4A3CF883B09F07DCF97
:100CB000E091700281E08E0F80937002F0E0E15BC2
:100CC000FD4F80818093BB009091700280916F02F4
:100CD00029C0809193028093BB0085EC8093BC0077
:100CE00064CF9091B5028091B402981758F5E091C5
:100CF000B50281E08E0F8093B502F0E0EC56FD4F17
:100D00008081E9CFE091B50281E08E0F8093B5023A
:100D10008091BB00F0E0EC56FD4F80839091B502CE
:100D20008091B4029817C8F285E8D8CFE091B50257
:100D300081E08E0F8093B5028091BB00F0E0EC560D
:100D4000FD4F80838091B70281115CCF81E0809359
:100D5000920284EA8093BC001092B80226CF85EC00
:100D60008093BC001092B80280919102803230F4DE
:100D7000E0919102F0E0EF58FD4F108260919102F6
:100D800070E0E091E902F091EA0281E792E00995D2
:100D9000109291020ACF1092B60234CF1092000343
:100DA0001092FF0288EE93E0A0E0B0E08093010390
:100DB00090930203A0930303B093040385E291E0B0
:100DC0009093FE028093FD021092810310928003A3
:100DD00081E491E090937F0380937E038FE380937F
:100DE000820384E18093860384E0809387031092DA
:100DF000880388E080938903109279031092780326
:100E000010927B0310927A0310927D0310927C0360
:100E100043E050E06BE671E088E793E00E94EE0467
:100E200010920B0310920F0310920E0310921003F6
:100E300087E391E090930A0380930903E5E2F3E0EE
:100E40001082148213821582369683E0E136F80709
:100E5000B9F783E091E090936C0380936B0380E09B
:100E600091E090936E0380936D0384E080936F0311
:100E700083E08093700387E091E090936A0380930E
:100E800069038AE090E0909372038093710384EF8A
:100E900091E0909374038093730310927703109200
:100EA0007603109265031092660310926703109206
:100EB0006803109275030895CF93DF93CDB7DEB723
:100EC0006C970FB6F894DEBF0FBECDBF789484B593
:100ED000826084BD84B5816084BD85B5826085BD36
:100EE00085B5816085BD80916E00816080936E00C4
:100EF00010928100809181008260809381008091B6
:100F00008100816080938100809180008160809366
:100F100080008091B10084608093B1008091B00026
:100F200081608093B00080917A00846080937A0021
:100F300080917A00826080937A0080917A0081604B
:100F400080937A0080917A00806880937A00109272
:100F5000C10061E08AE00E94670161E08BE00E94CD
:100F6000670161E08CE00E9467011092F00210922C
:100F7000EF021092EE021092ED020E948D0280EBC1
:100F800090E09093EC028093EB0281EB90E09093E1
:100F9000EA028093E90210928303809187038230F2
:100FA00018F098E09093830390918803992339F087
:100FB000813029F48091830384608093830362E30A
:100FC00070E080E090E00E94CC01609189038EE7A0
:100FD00093E00E94520368EE73E080E090E00E948C
:100FE000CC0160E38EE793E00E944A040BE416E430
:100FF000C8010197F1F760E38EE793E00E944A048D
:10100000C8010197F1F760E38EE793E00E944A047C
:1010100083E592E00197F1F760E28EE793E00E94AA
:101020004A0460918303606240E08EE793E00E948F
:10103000630484E08093840340E06CE08EE793E0F7
:101040000E9463040E947A0482E08093850340E05A
:1010500066E08EE793E00E94630440E062E08EE782
:1010600093E00E9463048BE39FE10197F1F788E02E
:101070008093890360E08EE793E00E9452038FE63D
:1010800091E00E94BF0461E080E00E94850484E852
:1010900091E00E94BF0462E080E00E94850488E93C
:1010A00091E00E94BF0463E080E00E9485048DEA25
:1010B00091E00E94BF0468EB7BE080E090E00E943A
:1010C000CC010E947A040E943C0464E170E080E05C
:1010D00090E00E94CC01812C912C540183941E013C
:1010E00023E1220E311C6E0139E1C30ED11C0E9496
:1010F0007A048091FC0281110AC086E591E00E9489
:10110000BF0464E670E080E090E00E94CC0181E0E2
:10111000809375030E94FE010091650310916603A0
:101120002091670330916803AB01BC01401B510B58
:10113000620B730B8091710390917203B0E0A0E099
:1011400084179507A607B70708F00CC110E0809137
:101150006F03181760F4E0916B03F0916C03E10FDB
:10116000F11D62E080810E9467011F5FF0CF512C6A
:1011700080917003581608F064C0E52CF12CE091C2
:101180006D03F0916E03EE0DFF1D61E080810E9402
:101190006701E0916D03F0916E03EE0DFF1D60E0BD
:1011A00080810E943501D501C401052C04C0880F3F
:1011B000991FAA1FBB1F0A94D2F79C8F8B8F3C01EB
:1011C00060947094412C80916F03481618F5042D9B
:1011D00010E0E0916B03F0916C03E00FF11F808150
:1011E0000E9409010C5F1F4F000F111FF801E75FFC
:1011F000FC4F892B51F4808191812B8D3C8D822B6A
:10120000932B918380834394DECF808191818621CB
:101210009721F7CFE0916D03F0916E03EE0DFF1D66
:1012200061E080810E94350180916D0390916E0391
:10123000E80EF91E60E0F70180810E946701539477
:1012400097CF09E013E07801F701878D90A1892BF2
:1012500031F4148E2FEF3FEF368F258F11A236E039
:10126000E30EF11C55E4E51653E0F50669F7712C21
:1012700080916F03781608F053C0612C472C512CD5
:10128000440C551CC2018F5E9C4F2C0120917003B1
:10129000621608F043C0F20160817181062C02C021
:1012A000769567950A94E2F7729E90011124260DB7
:1012B000311DE9E0F3E080E0458D568D24173507B8
:1012C00009F441C28F5F36968A30B1F760FF24C0BF
:1012D000E9E0F3E090E080E0448D411118C0E09136
:1012E0006903F0916A03E20FF31F408156E0589FB3
:1012F000F001599FF00D1124E75FFC4F448F368FAA
:10130000258F10A2178E61E00E940A0205C0019687
:1013100036968A30910501F76394B8CF7394A8CFBD
:10132000712CF80181A18111782E0A5F1F4FE01600
:10133000F106B9F70E94FE0160936503709366039E
:101340008093670390936803772061F080912A036C
:10135000882341F080912803909129037090250300
:10136000019719F010927503712C8E010F5F1F4FBA
:101370007801F80111821082138212821582148280
:1013800050E040E066EE71E0C8010E94EE040A5FA2
:101390001F4F2016310669F7772009F4B3C010916A
:1013A000FC020E947A04111104C086E591E00E94BB
:1013B000BF040091FA021091FB0262E0802F0E94AC
:1013C000850441E0672D8EE793E00E94630464EF9B
:1013D00071E080E090E00E94CC01FAE27F1619F003
:1013E00023E27212BBC01092FB021092FA0261E07B
:1013F00080E00E94850481EC91E00E94BF0460EDD2
:1014000077E080E090E00E94CC010E947A040E9484
:101410003C048091FC0281110E94CC040E947A0459
:101420008091FA029091FB02039709F06BC08091C2
:10143000F8029091F902181619060CF047C1809134
:10144000F6029091F70201969093F7028093F602CC
:101450001092F9021092F8021092FB021092FA0216
:101460000E947A0462E080E00E94850482ED91E0AF
:101470000E94BF0468EE73E080E090E00E94CC011F
:101480000E943C048091FC0281110E94CC04809156
:10149000F6029091F7020397A9F51092F7021092C5
:1014A000F6020E947A0461E080E00E94850487E0F1
:1014B00092E00E94BF0462E080E00E9485048CE11B
:1014C00092E00E94BF040AE010E061E08CE00E941C
:1014D000350168EE73E080E090E00E94CC0160E0AE
:1014E0008CE00E94350168EE73E080E090E00E949D
:1014F000CC010150110949F764EF71E080E090E000
:101500000E94CC018091FC028823A9F04090F20255
:101510005090F3026090F4027090F5020E94FE0178
:1015200064197509860997096C377541810591051C
:1015300010F00E94CC04CE010D960E94E604CE016C
:1015400007960E94E604C7010E94E60480E090E04E
:10155000892B09F4CCCD0E940000C9CD80917C0379
:1015600090917D030817190730F4E0917803F0910A
:101570007903309779F51092F102E1EFF2E02081E2
:10158000271186C01C8A1B8A1E8A1D8A188E1F8AF4
:10159000798E1A8EF60101900020E9F731978F01BC
:1015A0000C191D09B8016F5F7F4F90E080E00E9429
:1015B0000B0D009791F09C8B8B8B1E8B0D8B2F89C5
:1015C000388D232B09F443C0188F0F8BB6010E946E
:1015D000D10D0DC0E00FF11FD2CF8B899C890097F0
:1015E000C9F51C8A1B8A188E1F8A1E8A1D8A0091C3
:1015F000FA021091FB02F6E0F09F3001F19F700CAF
:1016000011246E0C7F1CF30180819181009739F1C8
:101610006B897C896115710501F1428153812F89A4
:10162000388D42175307C8F00E94D10D8F89988DCD
:10163000F30195838483188E1F8AC1010E94E604FA
:101640000F5F1F4F1093FB020093FA02E9CEFC01DB
:101650001082BACF0E94820CC4CF0E94820C26E076
:10166000209FF001219FF00D1124EE0DFF1D8B89AD
:101670009C89918380838D899E89938382838F89BE
:10168000988D958384831C8A1B8A1E8A1D8AD3CFDA
:101690000817190730F4E0917803F0917903309737
:1016A00091F41092F102E1EFF2E08081871509F4E4
:1016B000B7CE8091F8029091F90201969093F902C9
:1016C0008093F802BDCFE00FF11FEFCF892B09F017
:1016D000DECE1092FB021092FA020E947A0461E0C0
:1016E00080E00E94850487EE91E00E94BF0462E0E2
:1016F00085E00E9485048BEF91E00E94BF0481E0A9
:101700008093FC020E94FE016093F2027093F30248
:101710008093F4029093F50260E08AE00E94350124
:1017200061E08BE00E94350168E873E180E090E0C1
:101730000E94CC0161E08AE00E94350160E08BE00C
:101740000E943501A4CE6170DFCD88E793E00C9450
:10175000E6042F923F924F925F926F927F928F9208
:101760009F92AF92BF92CF92DF92EF92FF920F9330
:101770001F93CF93DF93CDB7DEB7CA1BDB0B0FB63A
:10178000F894DEBF0FBECDBF09942A8839884888F7
:101790005F846E847D848C849B84AA84B984C8848D
:1017A000DF80EE80FD800C811B81AA81B981CE0F84
:1017B000D11D0FB6F894DEBF0FBECDBFED01089569
:1017C000EE0FFF1F0590F491E02D09940F931F93E6
:1017D000CF93DF938230910510F482E090E0E091A6
:1017E0008C03F0918D0330E020E0B0E0A0E0309772
:1017F00099F42115310509F44AC0281B390B24300E
:101800003105D8F58A819B816115710589F1FB014C
:1018100093838283FE0111C0408151810281138133
:1018200048175907E0F04817590799F4109761F0E5
:1018300012960C93129713961C933296CF01DF9158
:10184000CF911F910F91089500938C0310938D03F6
:10185000F4CF2115310551F04217530738F0A90193
:10186000DB019A01BD01DF01F801C1CFEF01F9CF22
:1018700090938D0380938C03CDCFFE01E20FF31F75
:10188000819391932250310939832883D7CF2091B6
:101890008A0330918B03232B41F420911501309161
:1018A000160130938B0320938A032091130130910A
:1018B00014012115310541F42DB73EB740911701B0
:1018C00050911801241B350BE0918A03F0918B0392
:1018D000E217F307A0F42E1B3F0B2817390778F007
:1018E000AC014E5F5F4F2417350748F04E0F5F1F66
:1018F00050938B0340938A03819391939FCFF0E0A1
:10190000E0E09CCFCF93DF930097E9F0FC013297A2
:1019100013821282A0918C03B0918D03ED0130E00F
:1019200020E01097A1F420813181820F931F209134
:101930008A0330918B032817390709F061C0F093AF
:101940008B03E0938A03DF91CF910895EA01CE17CC
:10195000DF07E8F54A815B819E0141155105B1F72A
:10196000E901FB83EA8349915991C40FD51FEC1714
:10197000FD0761F4808191810296840F951FE90132
:1019800099838883828193819B838A83F0E0E0E05E
:1019900012968D919C9113970097B9F52D913C91DA
:1019A0001197CD010296820F931F20918A033091E7
:1019B0008B032817390739F6309751F510928D03AC
:1019C00010928C03B0938B03A0938A03BCCFD38374
:1019D000C28340815181840F951FC817D90761F4D4
:1019E0004E5F5F4F88819981480F591F5183408313
:1019F0008A819B81938382832115310509F0B0CFC1
:101A0000F0938D03E0938C039ECFFD01DC01C0CFEA
:101A100013821282D7CFB0E0A0E0E1E1FDE00C94A8
:101A2000AB0B8C01009751F4CB010E94E60B8C01AB
:101A3000C801CDB7DEB7E0E10C94C70BFC01E60F9F
:101A4000F71F9C0122503109E217F30708F49DC0EB
:101A5000D901CD91DC911197C617D70798F0C53001
:101A6000D10530F3CE0104978617970708F3C61BFC
:101A7000D70B2297C193D1936D937C93CF010E9492
:101A8000820CD6CF5B01AC1ABD0A4C018C0E9D1E98
:101A9000A0918C03B0918D03512C412CF12CE12CA1
:101AA000109731F580918A0390918B0388159905E1
:101AB00009F05CC04616570608F058C08091130123
:101AC00090911401009741F48DB79EB74091170192
:101AD00050911801841B950BE817F90708F055C0C1
:101AE000F0938B03E0938A03F90171836083A0CFA5
:101AF0008D919C91119712966C90129713967C90F1
:101B00001397A815B90559F56C0142E0C40ED11C14
:101B1000CA14DB0420F1AC014A195B09DA01129600
:101B2000159780F06282738251834083D9016D934F
:101B30007C93E114F10471F0D7011396FC93EE93BA
:101B4000129776CF22968C0F9D1FF9019183808387
:101B5000F301EFCFF0938D03E0938C0369CF481628
:101B6000590608F42C017D01D3019ACFCB010E94C4
:101B7000E60B7C01009749F0AE01B8010E94C80D48
:101B8000C8010E94820C870153CF10E000E050CFC3
:101B9000FB01DC0102C001900D9241505040D8F78A
:101BA0000895FB01DC0101900D920020E1F70895FA
:101BB00010E0C2E6D0E004C0FE010E94E00B2196D6
:101BC000C336D107C9F7F894FFCF03040506070809
:101BD000093132333435363738392A302300008E14
:101BE00003800000004000140054000000000023A7
:101BF00003F6023904CC02EF02DC02CD0200000041
:101C000000A3016301320100000000B904B30039F0
:101C100004B20020446F6F7220436C6F73657300D1
:101C200020456E74657220556E6C6F636B20436F38
:101C300064653A200031323300202020202057658F
:101C40006C636F6D6520746F2020202020002020A1
:101C50002020496E74656C6C6967656E7420202065
:101C600020002020204C6F636B696E6720537973CE
:101C700074656D2020200020202020205769746882
:101C80002054696D65722020202000202052657349
:101C9000657474696E672E2E2E202000202020206F
:101CA00057726F6E6720436F6465212020202020CB
:101CB0000020202020202057656C636F6D65212057
:101CC000202020200020446F6F72204F70656E73BB
:101CD00000202020205741524E494E4720202121EC
:101CE0002121202020002020204163636573732080
:081CF00044656E6965640000A3
:107E0000112484B714BE81FFF0D085E080938100F7
:107E100082E08093C00088E18093C10086E0809377
:107E2000C20080E18093C4008EE0C9D0259A86E02C
:107E300020E33CEF91E0309385002093840096BBD3
:107E4000B09BFECF1D9AA8958150A9F7CC24DD24C4
:107E500088248394B5E0AB2EA1E19A2EF3E0BF2EE7
:107E6000A2D0813461F49FD0082FAFD0023811F036
:107E7000013811F484E001C083E08DD089C08234E0
:107E800011F484E103C0853419F485E0A6D080C0E4
:107E9000853579F488D0E82EFF2485D0082F10E0AE
:107EA000102F00270E291F29000F111F8ED06801E7
:107EB0006FC0863521F484E090D080E0DECF843638
:107EC00009F040C070D06FD0082F6DD080E0C81688
:107ED00080E7D80618F4F601B7BEE895C0E0D1E017
:107EE00062D089930C17E1F7F0E0CF16F0E7DF06D8
:107EF00018F0F601B7BEE89568D007B600FCFDCFD4
:107F0000A601A0E0B1E02C9130E011968C91119780
:107F100090E0982F8827822B932B1296FA010C0160
:107F200087BEE89511244E5F5F4FF1E0A038BF0790
:107F300051F7F601A7BEE89507B600FCFDCF97BE46
:107F4000E89526C08437B1F42ED02DD0F82E2BD052
:107F50003CD0F601EF2C8F010F5F1F4F84911BD097
:107F6000EA94F801C1F70894C11CD11CFA94CF0C13
:107F7000D11C0EC0853739F428D08EE10CD085E9AC
:107F80000AD08FE07ACF813511F488E018D01DD067
:107F900080E101D065CF982F8091C00085FFFCCF94
:107FA0009093C60008958091C00087FFFCCF809118
:107FB000C00084FD01C0A8958091C6000895E0E648
:107FC000F0E098E1908380830895EDDF803219F02E
:107FD00088E0F5DFFFCF84E1DECF1F93182FE3DFCA
:107FE0001150E9F7F2DF1F91089580E0E8DFEE27F6
:047FF000FF270994CA
:027FFE00040479
:00000001FF
